S01700005261696C436F6D4465746563746F722E737265632C
S113000046C000006CC0000069C0000087C000004A
S113001065C0000063C0000061C000005FC0000054
S11300205DC000005BC00000F9C1000057C00000C3
S113003055C0000053C0000051C000004FC0000074
S11300404DC000004BC00000D1C1000047C00000FB
S113005037C3000043C000009FC300003FC000003E
S11300603DC000003BC0000039C0000037C00000A4
S1130070E6C1000033C0000031C000002FC0000002
S11300802DC000002BC0000029C00000150411245D
S11300901FBECFEFD0E4DEBFCDBF12E0A0E0B1E0E1
S11300A0EEE5F8E000E00BBF02C007900D92A83126
S11300B0B107D9F72AE0A8E1B2E001C01D92AC343F
S11300C0B207E1F710E0C7E4D0E003C02197FE01D6
S11300D0B2D3C634D107D1F7F1D1BFC391CF1F92A8
S11300E00F920FB60F9211240BB60F928F93EF93CA
S11300F0FF938FEF85BBEEE6F0E080818160808323
S113010016BC81E080931A02FF91EF918F910F90BA
S11301100BBE0F900FBE0F901F9018951F920F9259
S11301200FB60F9211240BB60F921F932F933F9388
S11301304F935F936F937F938F939F93AF93BF93EB
S1130140EF93FF93CF93DF93CDB7DEB72997DEBF4D
S1130150CDBF8091690084FF1BC182E28093690056
S113016085E08DBBE9ECF0E080818F7E8083809117
S11301703202811105C080913D02811103C003C088
S113018080E001C081E0882309F467C081E08093A6
S1130190330288E0E5E2F2E0DF01282F1D922A9580
S11301A0E9F7EDE1F2E0DF011D928A95E9F710919C
S11301B03D0210923D0210923302412F50E065E35C
S11301C072E085E292E040D320E040E0211798F409
S11301D0822F90E0FC01EB5DFD4FE081F0E0E95EF1
S11301E0FE4F3081FC01E35EFD4F308333230CF47A
S11301F041E02F5FEBCF411130C090911D02892F58
S11302008C7359F589E0E0E0F1E0DE01119601908C
S11302100D928A95E1F780913002882319F080913C
S1130220310201C080E0882331F0EBE1F2E080810B
S11302308C8381818D8380911E028F73B0E49B9F98
S1130240800D112488873C812D8197E9932792277B
S113025089278987CE0101960DD2809132028111BE
S113026005C080914602811103C003C080E001C033
S113027081E0882309F49EC081E08093340288E001
S1130280E5E2F2E0DF01282F1D922A95E9F7EDE17E
S1130290F2E0DF011D928A95E9F71091460210926F
S11302A0460210923402412F50E06EE372E085E280
S11302B092E0CAD220E040E0211798F4822F90E027
S11302C0FC01EB5DFD4FE081F0E0E95EFE4F308123
S11302D0FC01E35EFD4F308333230CF441E02F5FD8
S11302E0EBCF411167C020911D02822F8C7390E0E7
S11302F096958795969587958130910519F0029783
S113030071F019C080911E028F73B0E42B9F800D91
S1130310112480931C0281E0809331020CC08091EF
S11303201E028F7390E4299F800D112480931B0279
S113033081E08093300280913002882351F08091D3
S11303403102882341F090912F02992329F080E013
S113035003C080E001C080E0882361F188E0E9E027
S1130360F1E0DE01119601900D928A95E1F7EBE13F
S1130370F2E020812E8381818F8396E8922789275A
S11303808887CE01019676D181E080932F0212C036
S11303901092320280E38093690084E08DBB90E97F
S11303A09093C90010922E029FEF97BB8093700028
S11303B01092B20029960FB6F894DEBF0FBECDBFDF
S11303C0DF91CF91FF91EF91BF91AF919F918F9169
S11303D07F916F915F914F913F912F911F910F905A
S11303E00BBE0F900FBE0F901F9018951F920F9287
S11303F00FB60F9211248F938FEF85BB10926E006E
S113040010921A02109230021092310210922F02AE
S11304108F910F900FBE0F901F9018951F920F92FF
S11304200FB60F9211248F9381E080932E021092C5
S113043070008F910F900FBE0F901F9018951F9210
S11304400F920FB60F9211240BB60F928F939F93B6
S1130450EF93FF938091C8008C7190912E029923A1
S113046069F0E0913D0291E09E0F90933D02F0E02F
S11304709091CE00EB5CFD4F90830CC0E09146025E
S113048091E09E0F90934602F0E09091CE00E25CE2
S1130490FD4F9083882339F010923D02109246025A
S11304A081E080933202FF91EF919F918F910F90A1
S11304B00BBE0F900FBE0F901F901895CF93DF9334
S11304C0CDB7DEB727970FB6F894DEBF0FBECDBF0A
S11304D084B78093180214BE82E28093690085E099
S11304E08DBB24E030E03093CD002093CC0096E027
S11304F09093CA0085BD81E080936E0083E0809371
S1130500B10080E38093B00088E68093B4008FE16B
S11305108983CE01019686D0789490911A028091B5
S113052019029817E1F080911A028093190286E06B
S1130530E1E1F1E0DE01129601900D928A95E1F776
S113054080911A02882311F081EF8C839C8183E7C8
S1130550892791E089278F83CE0102968BD08091E1
S11305602D02DBCFFC011082118281E08283089589
S1130570FC012FB7F89481E08823F1F09181808108
S1130580981305C08281882321F080E003C080E0B5
S113059001C081E0882319F02FBF81E00895818193
S11305A091E0980F9183DF01A80FB11D13966C930E
S11305B08181128280E0E0CF2FBF80E00895CF9345
S11305C0DF93FC01EB013FB7F89481E08823C9F085
S11305D08281882319F03FBF82E015C08081DF014A
S11305E0A80FB11D13968C91888380818F5F8083BF
S11305F02081918180E02913E9CF81E0828380E02A
S1130600E5CF3FBF80E0DF91CF910895FC01828167
S11306100895019731F46F3F7F4F19F488E492E015
S1130620A1CF0895FC018081805C80934B0A80E413
S1130630882361F090914B0A282F292319F09058B0
S113064090934B0A90E095958795F2CF8BB11BB8A8
S113065080E88AB983E190E09093C5008093C40058
S113066081E08093C00086E08093C20084E9809397
S1130670C1000895FF920F931F93CF93DF938C01D2
S1130680FFB6F89491E080E0992399F0F801D081C5
S1130690C0E090E0CD17C0F7F801EC0FF11D6081C8
S11306A088E492E065DF882311F0FFBE03C0CF5FCA
S11306B0F0CFFFBEDF91CF911F910F91FF9008956E
S11306C01F920F920FB60F9211240BB60F922F9315
S11306D03F934F935F936F937F938F939F93AF93C6
S11306E0BF93EF93FF93CF93DF931F92CDB7DEB702
S11306F08091C0008C719091C600811132C08091AC
S1130700C00080FF33C080914B0A98132FC088E447
S113071092E07CDF81112AC080914702811126C0BA
S113072067E472E088E492E04ADF809147028150F6
S113073080934702BE016F5F7F4F88E492E03FDF02
S1130740809147028150809347028BB180688BB9B6
S1130750E1ECF0E080818864808389818093C60025
S113076005C0E0ECF0E08081816080830F90DF9130
S1130770CF91FF91EF91BF91AF919F918F917F9115
S11307806F915F914F913F912F910F900BBE0F90FE
S11307900FBE0F901F9018951F920F920FB60F92D5
S11307A011240BB60F922F933F934F935F936F9344
S11307B07F938F939F93AF93BF93EF93FF93CF93C5
S11307C0DF931F92CDB7DEB780914702882379F07B
S11307D0BE016F5F7F4F88E492E0F1DE80914702B3
S11307E081508093470289818093C60008C0E1EC60
S11307F0F0E08081877B80838BB18F778BB90F90FA
S1130800DF91CF91FF91EF91BF91AF919F918F9124
S11308107F916F915F914F913F912F910F900BBEFC
S11308200F900FBE0F901F9018956FEF7FEF81E030
S113083090E0EFCE0895EE0FFF1F0024001C0BBEC6
S11308400790F691E02D0994FB01DC0102C00190B0
S11108500D9241505040D8F70895F894FFCF10
S113085E0976E10000000000000875F200010000B6
S113086E000673F0000100FFFFFFFFFFFFFFFFFF15
S113087EFFFFFFFFFFFF4FFFFFFFFFFFFFFF33FFF2
S113088EFFFF34FF3536FFFFFFFFFFFFFFFF3AFF89
S113089EFFFF3BFF3C37FFFFFFFF3FFF3D38FFFFEE
S11308AE3E39FFFFFFFFFFFFFFFFFFFFFFFF24FFA8
S11308BEFFFF23FF2221FFFFFFFF1FFF1E20FFFF6D
S11308CE1D1CFF1BFFFFFFFFFFFF19FF181AFFFF81
S11308DE1716FF15FFFFFFFF2514FF13FFFFFF324F
S11308EEFFFFFFFFFFFFFFFFFFFFFFFFFFFFFFFF06
S11308FEFFFF0EFF0D0CFFFFFFFF0AFF090BFFFFAB
S113090E0807FF06FFFFFFFFFFFF04FF0305FFFFBE
S113091E0201FF00FFFFFFFF0F10FF11FFFFFF1289
S113092EFFFFFFFFFFFFFFFFFFFFFFFF2B30FFFF68
S113093E2A2FFF31FFFFFFFF292EFF2DFFFFFF2C74
S113094EFFFFFFFFFFFFFFFF4128FF27FFFFFF26EB
S113095EFFFFFFFFFFFFFF40FFFFFFFFFFFFFFFF54
S10B096EFFFFFFFFFFFFFF0084
S9030000FC
