:1000000046C000006CC0000069C0000087C000004E
:1000100065C0000063C0000061C000005FC0000058
:100020005DC000005BC0000059C0000057C0000068
:1000300055C0000053C0000051C000004FC0000078
:100040004DC000004BC00000A7C0000047C000002A
:10005000BBC2000043C0000023C300003FC000003B
:100060003DC000003BC0000039C0000037C00000A8
:10007000ABC0000033C0000031C000002FC0000042
:100080002DC000002BC0000029C0000099031124DE
:100090001FBECFEFD0E4DEBFCDBF12E0A0E0B1E0E5
:1000A000E6E6F7E000E00BBF02C007900D92A83132
:1000B000B107D9F72AE0A8E1B2E001C01D92A1344E
:1000C000B207E1F710E0C7E4D0E003C02197FE01DA
:1000D00036D3C634D107D1F7A3D043C391CF1F92F3
:1000E0000F920FB60F9211240BB60F928F93EF93CE
:1000F000FF938FEF85BBEEE6F0E080818160808327
:1001000016BC81E080931A02FF91EF918F910F90BE
:100110000BBE0F900FBE0F901F9018951F920F925D
:100120000FB60F9211240BB60F928F93EF93FF939C
:100130008091690084FF1CC082E28093690085E0A1
:100140008DBBE9ECF0E080818F7E8083809131026D
:10015000811105C080913B02811103C003C080E082
:1001600001C081E0882371F081E0809332020AC0EF
:100170001092310280E38093690084E08DBB80E9B6
:100180008093C900FF91EF918F910F900BBE0F905C
:100190000FBE0F901F9018951F920F920FB60F92DF
:1001A00011248F938FEF85BB10926E0010921A026C
:1001B00010922F021092300210922E028F910F9007
:1001C0000FBE0F901F9018951F920F920FB60F92AF
:1001D00011240BB60F928F939F93EF93FF9380910F
:1001E000C8008C71E0913B0291E09E0F90933B021E
:1001F000F0E09091CE00ED5CFD4F9083882329F0D4
:1002000010923B0281E080933102FF91EF919F9128
:100210008F910F900BBE0F900FBE0F901F901895EF
:10022000CF93DF93CDB7DEB72A970FB6F894DEBF32
:100230000FBECDBF84B78093180214BE82E28093B4
:10024000690085E08DBB24E030E03093CD00209341
:10025000CC0096E09093CA0085BD81E080936E004B
:100260008FE18983CE01019661D1789490911A0231
:10027000809119029817E1F080911A028093190277
:1002800086E0E0E0F1E0DE01129601900D928A95A1
:10029000E1F780911A02882311F081EF8C839C8111
:1002A00083E7892791E089278F83CE01029666D163
:1002B00080912D02809132028823C1F288E0E5E22C
:1002C000F2E0DF01282F1D922A95E9F7EDE1F2E037
:1002D000DF011D928A95E9F7F894F0903B021092A5
:1002E0003B02109232020F2D10E0A80163E372E08E
:1002F00085E292E02DD2789420E040E02F1598F42A
:10030000822F90E0FC01EB5DFD4FE081F0E0E95EC3
:10031000FE4F3081FC01E35EFD4F308333230CF44C
:1003200041E02F5FEBCF4111A1CF0F2EFDE1EF2E6A
:10033000F2E0FF2EF02DF7012081822F8C7390E0E8
:10034000969587959695879581309105C1F1823074
:10035000910509F443C0892B09F04FC089E0E6E01C
:10036000F1E0DE01129601900D928A95E1F78091FD
:100370002F02882319F08091300201C080E0882389
:1003800031F0EBE1F2E080818D8381818E83D701B2
:100390009C9111968C918F73B0E49B9F800D1124DA
:1003A00089873D812E8197E99327922789278A871C
:1003B000CE010296E3D0E2E0EE0EF11C22C0818174
:1003C0008F73B0E42B9F800D112480931C02E2E018
:1003D000EE0EF11C81E08093300213C081818F7397
:1003E000B0E42B9F800D112480931B02E2E0EE0EFF
:1003F000F11C81E080932F0204C0C801835E9D4FF1
:100400007C01C801835E9D4FE816F90608F493CF7E
:1004100080912F02882351F080913002882341F08F
:1004200090912E02992329F080E003C080E001C062
:1004300080E0882309F41ACF88E0EFE0F1E0DE01E4
:10044000129601900D928A95E1F7EBE1F2E020819E
:100450002F838181888796E8922789278987CE0113
:1004600002968CD081E080932E0200CFFC01108296
:10047000118281E082830895FC012FB7F89481E016
:100480008823F1F091818081981305C082818823AF
:1004900021F080E003C080E001C081E0882319F0F2
:1004A0002FBF81E00895818191E0980F9183DF0152
:1004B000A80FB11D13966C938181128280E0E0CF6A
:1004C0002FBF80E00895CF93DF93FC01EB013FB78E
:1004D000F89481E08823C9F08281882319F03FBF16
:1004E00082E015C08081DF01A80FB11D13968C91A9
:1004F000888380818F5F80832081918180E02913B0
:10050000E9CF81E0828380E0E5CF3FBF80E0DF91EB
:10051000CF910895FC0182810895019731F46F3FD6
:100520007F4F19F48DE392E0A1CF0895FC01808103
:10053000805C8093400A80E4882361F09091400AB7
:10054000282F292319F090589093400A90E0959510
:100550008795F2CF8BB11BB880E88AB983E190E030
:100560009093C5008093C40081E08093C00086E032
:100570008093C20084E98093C1000895FF920F9395
:100580001F93CF93DF938C01FFB6F89491E080E046
:10059000992399F0F801D081C0E090E0CD17C0F721
:1005A000F801EC0FF11D60818DE392E065DF882397
:1005B00011F0FFBE03C0CF5FF0CFFFBEDF91CF9140
:1005C0001F910F91FF9008951F920F920FB60F92F7
:1005D00011240BB60F922F933F934F935F936F931A
:1005E0007F938F939F93AF93BF93EF93FF93CF939B
:1005F000DF931F92CDB7DEB78091C0008C719091D0
:10060000C600811132C08091C00080FF33C080914C
:10061000400A98132FC08DE392E07CDF81112AC03D
:1006200080913C02811126C06CE372E08DE392E080
:100630004ADF80913C02815080933C02BE016F5F93
:100640007F4F8DE392E03FDF80913C0281508093A9
:100650003C028BB180688BB9E1ECF0E0808188646A
:10066000808389818093C60005C0E0ECF0E0808142
:10067000816080830F90DF91CF91FF91EF91BF91C7
:10068000AF919F918F917F916F915F914F913F912A
:100690002F910F900BBE0F900FBE0F901F901895CB
:1006A0001F920F920FB60F9211240BB60F922F9339
:1006B0003F934F935F936F937F938F939F93AF93EA
:1006C000BF93EF93FF93CF93DF931F92CDB7DEB726
:1006D00080913C02882379F0BE016F5F7F4F8DE3EC
:1006E00092E0F1DE80913C02815080933C0289814E
:1006F0008093C60008C0E1ECF0E08081877B8083B6
:100700008BB18F778BB90F90DF91CF91FF91EF91E4
:10071000BF91AF919F918F917F916F915F914F9119
:100720003F912F910F900BBE0F900FBE0F901F9017
:1007300018956FEF7FEF81E090E0EFCE0895EE0F18
:10074000FF1F0024001C0BBE0790F691E02D0994BA
:10075000FB01DC0102C001900D9241505040D8F7DE
:060760000895F894FFCF9C
:100766000673F00001000976E100000000000008B1
:1007760075F20001000000FFFFFFFFFFFFFFFFFF14
:10078600FFFFFFFFFFFF4FFFFFFFFFFFFFFF33FFEF
:10079600FFFF34FF3536FFFFFFFFFFFFFFFF3AFF86
:1007A600FFFF3BFF3C37FFFFFFFF3FFF3D38FFFFEB
:1007B6003E39FFFFFFFFFFFFFFFFFFFFFFFF24FFA5
:1007C600FFFF23FF2221FFFFFFFF1FFF1E20FFFF6A
:1007D6001D1CFF1BFFFFFFFFFFFF19FF181AFFFF7E
:1007E6001716FF15FFFFFFFF2514FF13FFFFFF324C
:1007F600FFFFFFFFFFFFFFFFFFFFFFFFFFFFFFFF03
:10080600FFFF0EFF0D0CFFFFFFFF0AFF090BFFFFA7
:100816000807FF06FFFFFFFFFFFF04FF0305FFFFBB
:100826000201FF00FFFFFFFF0F10FF11FFFFFF1286
:10083600FFFFFFFFFFFFFFFFFFFFFFFF2B30FFFF65
:100846002A2FFF31FFFFFFFF292EFF2DFFFFFF2C71
:10085600FFFFFFFFFFFFFFFF4128FF27FFFFFF26E8
:10086600FFFFFFFFFFFFFF40FFFFFFFFFFFFFFFF51
:08087600FFFFFFFFFFFFFF0081
:00000001FF
