:1000000046C000006CC0000069C0000087C000004E
:1000100065C0000063C0000061C000005FC0000058
:100020005DC000005BC0000059C0000057C0000068
:1000300055C0000053C0000051C000004FC0000078
:100040004DC000004BC00000A7C0000047C000002A
:100050005FC2000043C00000C7C200003FC00000F4
:100060003DC000003BC0000039C0000037C00000A8
:10007000ABC0000033C0000031C000002FC0000042
:100080002DC000002BC0000029C000003D0311243A
:100090001FBECFEFD0E4DEBFCDBF12E0A0E0B1E0E5
:1000A000EEEAF6E000E00BBF02C007900D92A6302A
:1000B000B107D9F723E0A6E0B2E001C01D92AF324C
:1000C000B207E1F710E0C7E4D0E003C02197FE01DA
:1000D000DAD2C634D107D1F7A3D0E7C291CF1F92AD
:1000E0000F920FB60F9211240BB60F928F93EF93CE
:1000F000FF938FEF85BBEEE6F0E080818160808327
:1001000016BC81E080930802FF91EF918F910F90D0
:100110000BBE0F900FBE0F901F9018951F920F925D
:100120000FB60F9211240BB60F928F93EF93FF939C
:100130008091690084FF1CC082E28093690085E0A1
:100140008DBBE9ECF0E080818F7E808380911F027F
:10015000811105C080912902811103C003C080E094
:1001600001C081E0882371F081E0809320020AC001
:1001700010921F0280E38093690084E08DBB80E9C8
:100180008093C900FF91EF918F910F900BBE0F905C
:100190000FBE0F901F9018951F920F920FB60F92DF
:1001A00011248F938FEF85BB10926E00109208027E
:1001B00010921D0210921E0210921C028F910F903D
:1001C0000FBE0F901F9018951F920F920FB60F92AF
:1001D00011240BB60F928F939F93EF93FF9380910F
:1001E000C8008C71E091290291E09E0F9093290242
:1001F000F0E09091CE00EF5DFD4F9083882329F0D1
:100200001092290281E080931F02FF91EF919F914C
:100210008F910F900BBE0F900FBE0F901F901895EF
:10022000CF93DF93CDB7DEB761970FB6F894DEBFFB
:100230000FBECDBF84B78093060214BE82E28093C6
:10024000690085E08DBB24E030E03093CD00209341
:10025000CC0096E09093CA0085BD81E080936E004B
:100260008FE18983CE01019605D17894909108029F
:10027000809107029817E1F08091080280930702AD
:1002800086E0E0E0F1E0DE01129601900D928A95A1
:10029000E1F780910802882311F081EF8C839C8123
:1002A00083E7892791E089278F83CE0102960AD1BF
:1002B00080911B02809120028823C1F288E0E3E153
:1002C000F2E0DF01982F1D929A95E9F7EBE0F2E05A
:1002D000DF011D928A95E9F7F89410912902109296
:1002E000290210922002412F50E061E272E083E186
:1002F00092E0D2D1789420E040E0211798F4822F48
:1003000090E0FC01ED5EFD4FE081F0E0EA5FFE4F22
:100310003081FC01E55FFD4F308333230CF441E075
:100320002F5FEBCF4111A2CF20910B02822F8C7354
:1003300090E096958795969587958130910519F06F
:10034000029771F019C080910C028F73B0E42B9F5B
:10035000800D112480930A0281E080931E020CC05C
:1003600080910C028F7390E4299F800D112480935B
:10037000090281E080931D0280911D02882351F0C3
:1003800080911E02882341F090911C02992329F04C
:1003900080E003C080E001C080E0882309F466CFDC
:1003A00088E08A8385E78B8382EF8C831D8211E04E
:1003B0001E83E9E0F2E020812F838181888796E81F
:1003C000922789278987CE0102967CD010931C0240
:1003D0004DCFFC011082118281E082830895FC01DF
:1003E0009FB7F89421818081281305C082818823DA
:1003F00021F080E003C080E001C081E081110DC0E8
:10040000818121E0280F2183DF01A80FB11D139600
:100410006C938181128280E001C081E09FBF0895CA
:10042000FC019FB7F8948281811113C08081DF01A4
:10043000A80FB11D13968C91DB018C9380818F5F87
:10044000808320818181281306C081E0828380E03F
:1004500003C082E001C080E09FBF0895FC0182815B
:100460000895019731F46F3F7F4F19F48BE292E0CA
:10047000B0CF0895FC018081805C80932E0380E4DE
:10048000882361F090912E03282F292319F090588A
:1004900090932E0390E095958795F2CF8BB11BB882
:1004A00080E88AB983E190E09093C5008093C4000E
:1004B00081E08093C00086E08093C20084E980934D
:1004C000C1000895FF920F931F93CF93DF938C0188
:1004D000FFB6F89491E080E0992399F0F801D0817B
:1004E000C0E090E0CD17C0F7F801EC0FF11D60817E
:1004F0008BE292E074DF882311F0FFBE03C0CF5F70
:10050000F0CFFFBEDF91CF911F910F91FF90089523
:100510001F920F920FB60F9211240BB60F922F93CA
:100520003F934F935F936F937F938F939F93AF937B
:10053000BF93EF93FF93CF93DF931F92CDB7DEB7B7
:100540008091C0008C719091C600811132C0809161
:10055000C00080FF33C080912E0398132FC08BE220
:1005600092E07CDF81112AC080912A02811126C08D
:100570006AE272E08BE292E053DF80912A028150BE
:1005800080932A02BE016F5F7F4F8BE292E048DFCB
:1005900080912A02815080932A028BB180688BB9A6
:1005A000E1ECF0E080818864808389818093C600DB
:1005B00005C0E0ECF0E08081816080830F90DF91E6
:1005C000CF91FF91EF91BF91AF919F918F917F91CB
:1005D0006F915F914F913F912F910F900BBE0F90B4
:1005E0000FBE0F901F9018951F920F920FB60F928B
:1005F00011240BB60F922F933F934F935F936F93FA
:100600007F938F939F93AF93BF93EF93FF93CF937A
:10061000DF931F92CDB7DEB780912A02882379F04D
:10062000BE016F5F7F4F8BE292E0FADE80912A027B
:10063000815080932A0289818093C60008C0E1EC32
:10064000F0E08081877B80838BB18F778BB90F90AF
:10065000DF91CF91FF91EF91BF91AF919F918F91DA
:100660007F916F915F914F913F912F910F900BBEB2
:100670000F900FBE0F901F9018956FEF7FEF81E0E6
:1006800090E0EFCE0895EE0FFF1F0024001C0BBE7C
:100690000790F691E02D0994FB01DC0102C0019066
:0E06A0000D9241505040D8F70895F894FFCFC6
:1006AE000673F0000100FFFFFFFFFFFFFFFFFFFFDC
:1006BE00FFFFFFFFFF4FFFFFFFFFFFFFFF33FFFFB8
:1006CE00FF34FF3536FFFFFFFFFFFFFFFF3AFFFF4F
:1006DE00FF3BFF3C37FFFFFFFF3FFF3D38FFFF3E75
:1006EE0039FFFFFFFFFFFFFFFFFFFFFFFF24FFFFAD
:1006FE00FF23FF2221FFFFFFFF1FFF1E20FFFF1D15
:10070E001CFF1BFFFFFFFFFFFF19FF181AFFFF174C
:10071E0016FF15FFFFFFFF2514FF13FFFFFF32FF2C
:10072E00FFFFFFFFFFFFFFFFFFFFFFFFFFFFFFFFCB
:10073E00FF0EFF0D0CFFFFFFFF0AFF090BFFFF0867
:10074E0007FF06FFFFFFFFFFFF04FF0305FFFF028A
:10075E0001FF00FFFFFFFF0F10FF11FFFFFF12FF52
:10076E00FFFFFFFFFFFFFFFFFFFFFF2B30FFFF2A03
:10077E002FFF31FFFFFFFF292EFF2DFFFFFF2CFF65
:10078E00FFFFFFFFFFFFFF4128FF27FFFFFF26FFB1
:10079E00FFFFFFFFFFFF40FFFFFFFFFFFFFFFFFF1A
:0607AE00FFFFFFFFFFFF4B
:00000001FF
