S01700005261696C436F6D4465746563746F722E737265632C
S113000045C0000060C000005EC000005DC000008C
S11300105AC0000058C0000056C0000054C0000080
S113002052C0000050C000004EC000004CC0000090
S11300304AC0000048C0000046C0000044C00000A0
S113004042C0000040C000003EC000003CC00000B0
S11300503AC0000038C0000036C0000034C00000C0
S113006032C0000030C000002EC000002CC00000D0
S113007057C0000028C0000026C0000024C00000B3
S113008022C0000020C000001EC0000011241FBEBA
S1130090CFEFD0E4DEBFCDBF12E0A0E0B1E0EEE7E9
S11300A0F2E000E00BBF02C007900D92A030B10750
S11300B0D9F722E0A0E0B2E001C01D92AC30B20753
S11300C0E1F74ED0DAC09CCF1F920F920FB60F9279
S11300D011240BB60F928F93EF93FF931A9B10C0CA
S11300E080E280936900E9ECF0E080818F7E808378
S11300F080910B02882351F081E08093020206C0B4
S113010080E38093690080E98093C900FF91EF91B7
S11301108F910F900BBE0F900FBE0F901F901895EC
S11301201F920F920FB60F9211240BB60F928F935A
S1130130EF93FF93E0910B0281E08E0F80930B020B
S1130140F0E08091CE00ED5FFD4F8083FF91EF9151
S11301508F910F900BBE0F900FBE0F901F901895AC
S1130160CF93DF93CDB7DEB760970FB6F894DEBFB9
S11301700FBECDBF80E28093690084E08DBB84E034
S113018090E09093CD008093CC0086E08093CA00E9
S113019078948E01075F1F4F6894AA24A3F8CE01B8
S11301A001967C010F2EF0E0CF2EF2E0DF2EF02D31
S11301B0BB24B394809102028823E1F3F894F801FC
S11301C08A2D11928A95E9F790900B02F7018A2DF6
S11301D011928A95E9F710920B0210920202492DAE
S11301E050E063E072E0C8013FD078949920E1F0D8
S11301F0DE0119969E012F5F3F4F9A94892D90E05E
S113020001968A0F9B1F50E0ED91F0E0E050FF4F04
S11302104081F90141939F0144230CF45B2DA817FD
S1130220B90791F75111C6CF2981822F8C7390E0C1
S113023096958795969587958130910519F0029743
S113024051F0B8CF8A818F73F0E42F9F800D112471
S1130250F6018183AFCF8A818F73F0E42F9F800DE5
S11302601124F6018083A6CFFB01DC0102C00190BA
S11102700D9241505040D8F70895F894FFCFF6
S113027EFFFFFFFFFFFFFFFFFFFFFFFFFFFFFF4F2C
S113028EFFFFFFFFFFFFFF33FFFFFF34FF3536FF96
S113029EFFFFFFFFFFFFFF3AFFFFFF3BFF3C37FF70
S11302AEFFFFFF3FFF3D38FFFF3E39FFFFFFFFFF1C
S11302BEFFFFFFFFFFFFFF24FFFFFF23FF2221FFAE
S11302CEFFFFFF1FFF1E20FFFF1D1CFF1BFFFFFF75
S11302DEFFFFFF19FF181AFFFF1716FF15FFFFFF89
S11302EEFF2514FF13FFFFFF32FFFFFFFFFFFFFF8A
S11302FEFFFFFFFFFFFFFFFFFFFFFF0EFF0D0CFFD2
S113030EFFFFFF0AFF090BFFFF0807FF06FFFFFFB2
S113031EFFFFFF04FF0305FFFF0201FF00FFFFFFC6
S113032EFF0F10FF11FFFFFF12FFFFFFFFFFFFFF85
S113033EFFFFFFFFFF2B30FFFF2A2FFF31FFFFFFD1
S113034EFF292EFF2DFFFFFF2CFFFFFFFFFFFFFFF7
S113035EFF4128FF27FFFFFF26FFFFFFFFFFFFFFE1
S113036E40FFFFFFFFFFFFFFFFFFFFFFFFFFFFFF4A
S9030000FC
