S0120000457870726573734E65742E7372656301
S113000045C0000060C000005EC000005CC000008D
S11300105AC0000058C0000056C0000054C0000080
S113002052C0000050C000004EC000004CC0000090
S11300304AC0000048C0000046C0000044C00000A0
S113004042C0000040C000003EC000003CC00000B0
S11300503AC0000038C0000036C0000034C00000C0
S113006032C0000030C000002EC000002CC00000D0
S11300702BC0000028C0000026C0000024C00000DF
S113008022C0000020C000001EC0000011241FBEBA
S1130090CFEFD0E4DEBFCDBF11E0A0E0B1E0E0E3FC
S11300A0F5E000E00BBF02C007900D92A230B1074B
S11300B0D9F721E0A2E0B1E001C01D92A334B20758
S11300C0E1F767D033C29CCF1F920F9200905F007C
S11300D00F92112400905B000F922F933F934F9344
S11300E05F936F937F938F939F93AF93BF93EF939C
S11300F0FF93CF93DF93CDB7DEB78091000190914A
S113010001019C012F5F3F4F3093010120930001B7
S11301102EEC30E0F9012081FC0120838091000164
S1130120909101019C0183E291E0281B390B80919D
S11301302301882F90E02817390799F4809123012F
S1130140882F90E0AC0163E271E083E091E0E5D1B7
S113015081E08093020183E291E090930101809316
S113016000010000DF91CF91FF91EF91BF91AF911A
S11301709F918F917F916F915F914F913F912F91BB
S11301800F9000925B000F9000925F000F901F9001
S11301901895CF93DF93CDB7DEB7CA50D1400FB6D1
S11301A0F894DEBF0FBECDBF109203018BE290E046
S11301B0FC0180818BE290E0FC0110828AE290E0F5
S11301C020E8FC01208384EC90E029E030E0FC018D
S11301D03183208382EC90E026E0FC01208381ECD3
S11301E090E02CE1FC0120838CEC90E029E030E0ED
S11301F0FC01318320838AEC90E026E0FC0120831B
S113020089EC90E028E9FC012083CE010C969C83C4
S11302108B83789481E0898389818032D8F78091B7
S11302200201882309F46CC08BE290E02BE230E0F9
S1130230F90120812068FC01208381E08D832091D5
S1130240030181E09D81921708F080E08823B1F1D9
S11302508D81813049F481EC90E021EC30E0F901AA
S113026020812160FC01208380EC90E0FC018081EE
S1130270882F90E08072992721E0892B09F020E0F3
S1130280222309F0F1CF86EC90E02D81222F30E07B
S11302902D5F3E4FF9012081FC0120838D81813047
S11302A049F481EC90E021EC30E0F90120812E7FCB
S11302B0FC0120838D818F5F8D83C1CF80EC90E022
S11302C0FC018081882F90E08074992721E0892B9C
S11302D009F020E0222309F0F1CF8BE290E0FC0149
S11302E080818BE290E0FC01108280EC90E020ECB5
S11302F030E0F90120812064FC0120831092020186
S11303008981805C8A8380E48E838E81882381F056
S11303109A818E818923882321F09A8180E8892714
S11303208A838E81882F90E0959587958E83EDCF73
S11303308BE290E02BE230E0F90120812068FC019F
S1130340208380EC90E0FC018081882F90E0807213
S1130350992721E0892B09F020E0222309F0F1CF2D
S113036081EC90E021EC30E0F90120812160FC0176
S1130370208386EC90E02A81FC01208380EC90E0CD
S1130380FC018081882F90E08074992721E0892BDB
S113039009F020E0222309F0F1CF81EC90E021EC78
S11303A030E0F90120812E7FFC0120838BE290E074
S11303B0FC0180818BE290E0FC01108280EC90E0F3
S11303C020EC30E0F90120812064FC0120831F82AD
S11303D080EC90E0FC018081881F8827881F882397
S11303E071F08B819C819C012F5F3F4F3C832B8359
S11303F026EC30E0F9012081FC0120831F828F81EB
S11304008F5F8F8381E09F81992309F480E08823A3
S113041009F0DECFCE010C962B813C8128173907D9
S113042009F477C02B813C81CE010C96A901481BAD
S1130430590BCA018B871886198699858B8598175D
S113044088F48985882F90E09E01245F3F4F820FB6
S1130450931FFC01808198858927888789858F5F10
S11304608987EBCF8885882309F04FC088EC90E01A
S1130470FC018081882F90E08072992721E0892BEC
S113048009F020E0222309F0F1CF8EEC90E02B85D7
S11304902E5FFC01208388EC90E0FC018081882F92
S11304A090E08072992721E0892B09F020E0222333
S11304B009F0F1CF8EEC90E02981FC0120831A86AB
S11304C09A858B85981708F588EC90E0FC0180816B
S11304D0882F90E08072992721E0892B09F020E091
S11304E0222309F0F1CF8EEC90E02A85222F30E010
S11304F0AE01445F5F4F240F351FF9012081FC01D9
S113050020838A858F5F8A87DBCFCE010C969C83FC
S11305108B8389818F5F89837FCEFB01DC0102C0DD
S113052001900D9241505040D8F70895F894FFCFB0
S10505302301A1
S9030000FC
